{
  "contractName": "Lottery",
  "abi": [
    {
      "inputs": [],
      "stateMutability": "nonpayable",
      "type": "constructor"
    },
    {
      "anonymous": false,
      "inputs": [
        {
          "indexed": false,
          "internalType": "uint256",
          "name": "index",
          "type": "uint256"
        },
        {
          "indexed": false,
          "internalType": "address",
          "name": "bettor",
          "type": "address"
        },
        {
          "indexed": false,
          "internalType": "uint256",
          "name": "amount",
          "type": "uint256"
        },
        {
          "indexed": false,
          "internalType": "bytes1",
          "name": "challenges",
          "type": "bytes1"
        },
        {
          "indexed": false,
          "internalType": "uint256",
          "name": "answerBlockNumber",
          "type": "uint256"
        }
      ],
      "name": "BET",
      "type": "event"
    },
    {
      "anonymous": false,
      "inputs": [
        {
          "indexed": false,
          "internalType": "uint256",
          "name": "index",
          "type": "uint256"
        },
        {
          "indexed": false,
          "internalType": "address",
          "name": "bettor",
          "type": "address"
        },
        {
          "indexed": false,
          "internalType": "uint256",
          "name": "amount",
          "type": "uint256"
        },
        {
          "indexed": false,
          "internalType": "bytes1",
          "name": "challenges",
          "type": "bytes1"
        },
        {
          "indexed": false,
          "internalType": "bytes1",
          "name": "answer",
          "type": "bytes1"
        },
        {
          "indexed": false,
          "internalType": "uint256",
          "name": "answerBlockNumber",
          "type": "uint256"
        }
      ],
      "name": "DRAW",
      "type": "event"
    },
    {
      "anonymous": false,
      "inputs": [
        {
          "indexed": false,
          "internalType": "uint256",
          "name": "index",
          "type": "uint256"
        },
        {
          "indexed": false,
          "internalType": "address",
          "name": "bettor",
          "type": "address"
        },
        {
          "indexed": false,
          "internalType": "uint256",
          "name": "amount",
          "type": "uint256"
        },
        {
          "indexed": false,
          "internalType": "bytes1",
          "name": "challenges",
          "type": "bytes1"
        },
        {
          "indexed": false,
          "internalType": "bytes1",
          "name": "answer",
          "type": "bytes1"
        },
        {
          "indexed": false,
          "internalType": "uint256",
          "name": "answerBlockNumber",
          "type": "uint256"
        }
      ],
      "name": "FAIL",
      "type": "event"
    },
    {
      "anonymous": false,
      "inputs": [
        {
          "indexed": false,
          "internalType": "uint256",
          "name": "index",
          "type": "uint256"
        },
        {
          "indexed": false,
          "internalType": "address",
          "name": "bettor",
          "type": "address"
        },
        {
          "indexed": false,
          "internalType": "uint256",
          "name": "amount",
          "type": "uint256"
        },
        {
          "indexed": false,
          "internalType": "bytes1",
          "name": "challenges",
          "type": "bytes1"
        },
        {
          "indexed": false,
          "internalType": "uint256",
          "name": "answerBlockNumber",
          "type": "uint256"
        }
      ],
      "name": "REFUND",
      "type": "event"
    },
    {
      "anonymous": false,
      "inputs": [
        {
          "indexed": false,
          "internalType": "uint256",
          "name": "index",
          "type": "uint256"
        },
        {
          "indexed": false,
          "internalType": "address",
          "name": "bettor",
          "type": "address"
        },
        {
          "indexed": false,
          "internalType": "uint256",
          "name": "amount",
          "type": "uint256"
        },
        {
          "indexed": false,
          "internalType": "bytes1",
          "name": "challenges",
          "type": "bytes1"
        },
        {
          "indexed": false,
          "internalType": "bytes1",
          "name": "answer",
          "type": "bytes1"
        },
        {
          "indexed": false,
          "internalType": "uint256",
          "name": "answerBlockNumber",
          "type": "uint256"
        }
      ],
      "name": "WIN",
      "type": "event"
    },
    {
      "inputs": [],
      "name": "answerForTest",
      "outputs": [
        {
          "internalType": "bytes32",
          "name": "",
          "type": "bytes32"
        }
      ],
      "stateMutability": "view",
      "type": "function",
      "constant": true
    },
    {
      "inputs": [],
      "name": "owner",
      "outputs": [
        {
          "internalType": "address payable",
          "name": "",
          "type": "address"
        }
      ],
      "stateMutability": "view",
      "type": "function",
      "constant": true
    },
    {
      "inputs": [],
      "name": "getPot",
      "outputs": [
        {
          "internalType": "uint256",
          "name": "pot",
          "type": "uint256"
        }
      ],
      "stateMutability": "view",
      "type": "function",
      "constant": true
    },
    {
      "inputs": [
        {
          "internalType": "uint256",
          "name": "index",
          "type": "uint256"
        }
      ],
      "name": "getBetInfo",
      "outputs": [
        {
          "internalType": "uint256",
          "name": "answerBlockNumber",
          "type": "uint256"
        },
        {
          "internalType": "address",
          "name": "bettor",
          "type": "address"
        },
        {
          "internalType": "bytes1",
          "name": "challenges",
          "type": "bytes1"
        }
      ],
      "stateMutability": "view",
      "type": "function",
      "constant": true
    },
    {
      "inputs": [
        {
          "internalType": "bytes1",
          "name": "challenges",
          "type": "bytes1"
        }
      ],
      "name": "betAndDistribute",
      "outputs": [
        {
          "internalType": "bool",
          "name": "result",
          "type": "bool"
        }
      ],
      "stateMutability": "payable",
      "type": "function",
      "payable": true
    },
    {
      "inputs": [
        {
          "internalType": "bytes1",
          "name": "challenges",
          "type": "bytes1"
        }
      ],
      "name": "bet",
      "outputs": [
        {
          "internalType": "bool",
          "name": "result",
          "type": "bool"
        }
      ],
      "stateMutability": "payable",
      "type": "function",
      "payable": true
    },
    {
      "inputs": [],
      "name": "distribute",
      "outputs": [],
      "stateMutability": "nonpayable",
      "type": "function"
    },
    {
      "inputs": [
        {
          "internalType": "bytes32",
          "name": "answer",
          "type": "bytes32"
        }
      ],
      "name": "setAnswerForTest",
      "outputs": [
        {
          "internalType": "bool",
          "name": "result",
          "type": "bool"
        }
      ],
      "stateMutability": "nonpayable",
      "type": "function"
    },
    {
      "inputs": [
        {
          "internalType": "bytes1",
          "name": "challenges",
          "type": "bytes1"
        },
        {
          "internalType": "bytes32",
          "name": "answer",
          "type": "bytes32"
        }
      ],
      "name": "isMatch",
      "outputs": [
        {
          "internalType": "enum Lottery.BettingResult",
          "name": "",
          "type": "uint8"
        }
      ],
      "stateMutability": "pure",
      "type": "function",
      "constant": true
    }
  ],
  "bytecode": "0x60806040526000600560006101000a81548160ff02191690831515021790555034801561002b57600080fd5b5033600360006101000a81548173ffffffffffffffffffffffffffffffffffffffff021916908373ffffffffffffffffffffffffffffffffffffffff1602179055506118058061007c6000396000f3fe6080604052600436106100865760003560e01c80638da5cb5b116100595780638da5cb5b1461015d57806399a167d714610188578063e16ea857146101c5578063e4fc6b6d146101f5578063f4b46f5b1461020c57610086565b8063403c9fa81461008b5780637009fa36146100b657806379141f80146100f357806384f7e4f014610132575b600080fd5b34801561009757600080fd5b506100a061023c565b6040516100ad9190610fee565b60405180910390f35b3480156100c257600080fd5b506100dd60048036038101906100d89190611044565b610246565b6040516100ea919061108c565b60405180910390f35b3480156100ff57600080fd5b5061011a600480360381019061011591906110d3565b6102e8565b6040516101299392919061117c565b60405180910390f35b34801561013e57600080fd5b506101476103e5565b60405161015491906111c2565b60405180910390f35b34801561016957600080fd5b506101726103eb565b60405161017f91906111fe565b60405180910390f35b34801561019457600080fd5b506101af60048036038101906101aa9190611245565b610411565b6040516101bc91906112fc565b60405180910390f35b6101df60048036038101906101da9190611317565b6106fa565b6040516101ec919061108c565b60405180910390f35b34801561020157600080fd5b5061020a610717565b005b61022660048036038101906102219190611317565b610b75565b604051610233919061108c565b60405180910390f35b6000600454905090565b6000600360009054906101000a900473ffffffffffffffffffffffffffffffffffffffff1673ffffffffffffffffffffffffffffffffffffffff163373ffffffffffffffffffffffffffffffffffffffff16146102d8576040517f08c379a00000000000000000000000000000000000000000000000000000000081526004016102cf906113c7565b60405180910390fd5b8160068190555060019050919050565b600080600080600080868152602001908152602001600020604051806060016040529081600082015481526020016001820160009054906101000a900473ffffffffffffffffffffffffffffffffffffffff1673ffffffffffffffffffffffffffffffffffffffff1673ffffffffffffffffffffffffffffffffffffffff1681526020016001820160149054906101000a900460f81b7effffffffffffffffffffffffffffffffffffffffffffffffffffffffffffff19167effffffffffffffffffffffffffffffffffffffffffffffffffffffffffffff1916815250509050806000015193508060200151925080604001519150509193909250565b60065481565b600360009054906101000a900473ffffffffffffffffffffffffffffffffffffffff1681565b6000808390506000849050600084600060208110610432576104316113e7565b5b1a60f81b905060008560006020811061044e5761044d6113e7565b5b1a60f81b90506004847effffffffffffffffffffffffffffffffffffffffffffffffffffffffffffff1916901c93506004847effffffffffffffffffffffffffffffffffffffffffffffffffffffffffffff1916901b93506004827effffffffffffffffffffffffffffffffffffffffffffffffffffffffffffff1916901c91506004827effffffffffffffffffffffffffffffffffffffffffffffffffffffffffffff1916901b91506004837effffffffffffffffffffffffffffffffffffffffffffffffffffffffffffff1916901b92506004837effffffffffffffffffffffffffffffffffffffffffffffffffffffffffffff1916901c92506004817effffffffffffffffffffffffffffffffffffffffffffffffffffffffffffff1916901b90506004817effffffffffffffffffffffffffffffffffffffffffffffffffffffffffffff1916901c9050837effffffffffffffffffffffffffffffffffffffffffffffffffffffffffffff1916827effffffffffffffffffffffffffffffffffffffffffffffffffffffffffffff19161480156106325750827effffffffffffffffffffffffffffffffffffffffffffffffffffffffffffff1916817effffffffffffffffffffffffffffffffffffffffffffffffffffffffffffff1916145b156106445760019450505050506106f4565b837effffffffffffffffffffffffffffffffffffffffffffffffffffffffffffff1916827effffffffffffffffffffffffffffffffffffffffffffffffffffffffffffff191614806106d95750827effffffffffffffffffffffffffffffffffffffffffffffffffffffffffffff1916817effffffffffffffffffffffffffffffffffffffffffffffffffffffffffffff1916145b156106eb5760029450505050506106f4565b60009450505050505b92915050565b600061070582610b75565b5061070e610717565b60019050919050565b600080610722610f7c565b60008060025494505b600154851015610b6757600080868152602001908152602001600020604051806060016040529081600082015481526020016001820160009054906101000a900473ffffffffffffffffffffffffffffffffffffffff1673ffffffffffffffffffffffffffffffffffffffff1673ffffffffffffffffffffffffffffffffffffffff1681526020016001820160149054906101000a900460f81b7effffffffffffffffffffffffffffffffffffffffffffffffffffffffffffff19167effffffffffffffffffffffffffffffffffffffffffffffffffffffffffffff191681525050925061081c8360000151610c69565b91506000600281111561083257610831611285565b5b82600281111561084557610844611285565b5b03610a8f5760006108598460000151610ccb565b905061087584604001516108708660000151610ccb565b610411565b91506001600281111561088b5761088a611285565b5b82600281111561089e5761089d611285565b5b03610934576108c584602001516611c37937e080006004546108c09190611445565b610cf3565b945060006004819055507f8219079e2d6c1192fb0ff7f78e6faaf5528ad6687e69749205d87bd4b156912b868560200151878760400151856000602081106109105761090f6113e7565b5b1a60f81b896000015160405161092b969594939291906114d8565b60405180910390a15b6000600281111561094857610947611285565b5b82600281111561095b5761095a611285565b5b036109e6576611c37937e08000600460008282546109799190611445565b925050819055507f3b19d607433249d2ebc766ae82ca3848e9c064f1febb5147bc6e5b21d0adebc586856020015160008760400151856000602081106109c2576109c16113e7565b5b1a60f81b89600001516040516109dd96959493929190611574565b60405180910390a15b6002808111156109f9576109f8611285565b5b826002811115610a0c57610a0b611285565b5b03610a8d57610a2684602001516611c37937e08000610cf3565b94507f72ec2e949e4fad9380f9d5db3e2ed0e71cf22c51d8d66424508bdc761a3f4b0e86856020015187876040015185600060208110610a6957610a686113e7565b5b1a60f81b8960000151604051610a84969594939291906114d8565b60405180910390a15b505b60016002811115610aa357610aa2611285565b5b826002811115610ab657610ab5611285565b5b0315610b6757600280811115610acf57610ace611285565b5b826002811115610ae257610ae1611285565b5b03610b4a57610afc83602001516611c37937e08000610cf3565b93507f59c0185881271a0f53d43e6ab9310091408f9e0ff9ae2512613de800f26b8de48584602001518686604001518760000151604051610b419594939291906115d5565b60405180910390a15b610b5385610dc5565b508480610b5f90611628565b95505061072b565b846002819055505050505050565b60006611c37937e080003414610bc0576040517f08c379a0000000000000000000000000000000000000000000000000000000008152600401610bb7906116bc565b60405180910390fd5b610bc982610e28565b610c08576040517f08c379a0000000000000000000000000000000000000000000000000000000008152600401610bff90611728565b60405180910390fd5b7f100791de9f40bf2d56ffa6dc5597d2fd0b2703ea70bc7548cd74c04f5d215ab760018054610c379190611748565b333485600343610c479190611445565b604051610c5895949392919061177c565b60405180910390a160019050919050565b60008143118015610c86575081610100610c839190611445565b43105b15610c945760009050610cc6565b814311610ca45760019050610cc6565b61010082610cb29190611445565b4310610cc15760029050610cc6565b600290505b919050565b6000600560009054906101000a900460ff16610ce957600654610cec565b81405b9050919050565b6000806000905060008184610d089190611748565b90508473ffffffffffffffffffffffffffffffffffffffff166108fc829081150290604051600060405180830381858888f19350505050158015610d50573d6000803e3d6000fd5b50600360009054906101000a900473ffffffffffffffffffffffffffffffffffffffff1673ffffffffffffffffffffffffffffffffffffffff166108fc839081150290604051600060405180830381858888f19350505050158015610db9573d6000803e3d6000fd5b50809250505092915050565b60008060008381526020019081526020016000206000808201600090556001820160006101000a81549073ffffffffffffffffffffffffffffffffffffffff02191690556001820160146101000a81549060ff0219169055505060019050919050565b6000610e32610f7c565b33816020019073ffffffffffffffffffffffffffffffffffffffff16908173ffffffffffffffffffffffffffffffffffffffff1681525050600343610e779190611445565b8160000181815250508281604001907effffffffffffffffffffffffffffffffffffffffffffffffffffffffffffff191690817effffffffffffffffffffffffffffffffffffffffffffffffffffffffffffff1916815250508060008060015481526020019081526020016000206000820151816000015560208201518160010160006101000a81548173ffffffffffffffffffffffffffffffffffffffff021916908373ffffffffffffffffffffffffffffffffffffffff16021790555060408201518160010160146101000a81548160ff021916908360f81c021790555090505060016000815480929190610f6d90611628565b91905055506001915050919050565b604051806060016040528060008152602001600073ffffffffffffffffffffffffffffffffffffffff16815260200160007effffffffffffffffffffffffffffffffffffffffffffffffffffffffffffff191681525090565b6000819050919050565b610fe881610fd5565b82525050565b60006020820190506110036000830184610fdf565b92915050565b600080fd5b6000819050919050565b6110218161100e565b811461102c57600080fd5b50565b60008135905061103e81611018565b92915050565b60006020828403121561105a57611059611009565b5b60006110688482850161102f565b91505092915050565b60008115159050919050565b61108681611071565b82525050565b60006020820190506110a1600083018461107d565b92915050565b6110b081610fd5565b81146110bb57600080fd5b50565b6000813590506110cd816110a7565b92915050565b6000602082840312156110e9576110e8611009565b5b60006110f7848285016110be565b91505092915050565b600073ffffffffffffffffffffffffffffffffffffffff82169050919050565b600061112b82611100565b9050919050565b61113b81611120565b82525050565b60007fff0000000000000000000000000000000000000000000000000000000000000082169050919050565b61117681611141565b82525050565b60006060820190506111916000830186610fdf565b61119e6020830185611132565b6111ab604083018461116d565b949350505050565b6111bc8161100e565b82525050565b60006020820190506111d760008301846111b3565b92915050565b60006111e882611100565b9050919050565b6111f8816111dd565b82525050565b600060208201905061121360008301846111ef565b92915050565b61122281611141565b811461122d57600080fd5b50565b60008135905061123f81611219565b92915050565b6000806040838503121561125c5761125b611009565b5b600061126a85828601611230565b925050602061127b8582860161102f565b9150509250929050565b7f4e487b7100000000000000000000000000000000000000000000000000000000600052602160045260246000fd5b600381106112c5576112c4611285565b5b50565b60008190506112d6826112b4565b919050565b60006112e6826112c8565b9050919050565b6112f6816112db565b82525050565b600060208201905061131160008301846112ed565b92915050565b60006020828403121561132d5761132c611009565b5b600061133b84828501611230565b91505092915050565b600082825260208201905092915050565b7f4f6e6c79206f776e65722063616e207365742074686520616e7377657220666f60008201527f722074657374206d6f6465000000000000000000000000000000000000000000602082015250565b60006113b1602b83611344565b91506113bc82611355565b604082019050919050565b600060208201905081810360008301526113e0816113a4565b9050919050565b7f4e487b7100000000000000000000000000000000000000000000000000000000600052603260045260246000fd5b7f4e487b7100000000000000000000000000000000000000000000000000000000600052601160045260246000fd5b600061145082610fd5565b915061145b83610fd5565b925082820190508082111561147357611472611416565b5b92915050565b6000819050919050565b600061149e61149961149484611100565b611479565b611100565b9050919050565b60006114b082611483565b9050919050565b60006114c2826114a5565b9050919050565b6114d2816114b7565b82525050565b600060c0820190506114ed6000830189610fdf565b6114fa60208301886114c9565b6115076040830187610fdf565b611514606083018661116d565b611521608083018561116d565b61152e60a0830184610fdf565b979650505050505050565b6000819050919050565b600061155e61155961155484611539565b611479565b610fd5565b9050919050565b61156e81611543565b82525050565b600060c0820190506115896000830189610fdf565b61159660208301886114c9565b6115a36040830187611565565b6115b0606083018661116d565b6115bd608083018561116d565b6115ca60a0830184610fdf565b979650505050505050565b600060a0820190506115ea6000830188610fdf565b6115f760208301876114c9565b6116046040830186610fdf565b611611606083018561116d565b61161e6080830184610fdf565b9695505050505050565b600061163382610fd5565b91507fffffffffffffffffffffffffffffffffffffffffffffffffffffffffffffffff820361166557611664611416565b5b600182019050919050565b7f4e6f7420656e6f75676820455448000000000000000000000000000000000000600082015250565b60006116a6600e83611344565b91506116b182611670565b602082019050919050565b600060208201905081810360008301526116d581611699565b9050919050565b7f4661696c20746f206164642061206e65772042657420496e666f000000000000600082015250565b6000611712601a83611344565b915061171d826116dc565b602082019050919050565b6000602082019050818103600083015261174181611705565b9050919050565b600061175382610fd5565b915061175e83610fd5565b925082820390508181111561177657611775611416565b5b92915050565b600060a0820190506117916000830188610fdf565b61179e6020830187611132565b6117ab6040830186610fdf565b6117b8606083018561116d565b6117c56080830184610fdf565b969550505050505056fea2646970667358221220f124f7713b9de951006fecf0552ac82e710e6f1dafd180b4be9df4c4614077b564736f6c63430008110033",
  "immutableReferences": {},
  "source": "//SPDX-License-Identifier: GPL-3.0\r\npragma solidity >=0.7.0 <0.9.0;\r\n\r\ncontract Lottery{\r\n    struct BetInfo{\r\n        uint256 answerBlockNumber;\r\n        address payable bettor;\r\n        bytes1 challenges; //1bytes   .         \r\n    }\r\n\r\n    mapping (uint256=>BetInfo) private _bets;\r\n    uint256 private _tail;\r\n    uint256 private _head;\r\n\r\n    address payable public owner;\r\n    //owner public    owner()   .\r\n\r\n    uint256 private _pot;\r\n    uint256 constant internal BET_AMOUNT = 5 * 10 ** 15;\r\n    uint256 constant internal BET_BLOCK_INTERVAL = 3;\r\n    uint256 constant internal BLOCK_LIMIT = 256;\r\n\r\n    bool private mode = false; //false : test mode, true : use real block hash\r\n    bytes32 public answerForTest;\r\n\r\n    enum BlockStatus {Checkable, NotRevealed, BlockLimitPassed}\r\n    enum BettingResult {Fail, Win, Draw} //fail 0, win 1, draw 2\r\n    event BET(uint256 index, address bettor, uint256 amount, bytes1 challenges, uint256 answerBlockNumber);\r\n    event WIN(uint256 index, address bettor, uint256 amount, bytes1 challenges, bytes1 answer, uint256 answerBlockNumber);\r\n    event FAIL(uint256 index, address bettor, uint256 amount, bytes1 challenges, bytes1 answer, uint256 answerBlockNumber);\r\n    event DRAW(uint256 index, address bettor, uint256 amount, bytes1 challenges, bytes1 answer, uint256 answerBlockNumber);\r\n    event REFUND(uint256 index, address bettor, uint256 amount, bytes1 challenges, uint256 answerBlockNumber);\r\n\r\n    constructor() {\r\n        //      \r\n        //     owner  \r\n        owner = payable(msg.sender);\r\n    }\r\n\r\n    function getPot() public view returns(uint256 pot){\r\n        return _pot;\r\n    }\r\n\r\n    //queue \r\n    function getBetInfo(uint256 index) public view returns(uint256 answerBlockNumber, address bettor, bytes1 challenges){\r\n        BetInfo memory b = _bets[index];\r\n        answerBlockNumber = b.answerBlockNumber;\r\n        bettor = b.bettor;\r\n        challenges = b.challenges;\r\n    }\r\n\r\n    //push\r\n    function pushBet(bytes1 challenges) internal returns(bool){\r\n        BetInfo memory b;\r\n        b.bettor = payable(msg.sender);\r\n        b.answerBlockNumber = block.number + BET_BLOCK_INTERVAL;\r\n        b.challenges = challenges;\r\n\r\n        _bets[_tail] = b;\r\n        _tail++;\r\n\r\n        return true;\r\n    }\r\n\r\n    //pop\r\n    function popBet(uint256 index) internal returns(bool){\r\n        delete _bets[index];\r\n\r\n        return true;\r\n    }\r\n\r\n    function betAndDistribute(bytes1 challenges) public payable returns(bool result){\r\n        bet(challenges);\r\n\r\n        distribute();\r\n\r\n        return true;\r\n    }\r\n\r\n    //\r\n    /*\r\n    * @dev  .  0.005ETH  ,  1byte  .\r\n    *       distribute  . \r\n    * @param challenges   .\r\n    * @return     bool \r\n    */\r\n    function bet(bytes1 challenges) public payable returns(bool result){\r\n        //   \r\n        require(msg.value == BET_AMOUNT, \"Not enough ETH\");\r\n        // bet  \r\n        require(pushBet(challenges), \"Fail to add a new Bet Info\");\r\n        //event log \r\n        emit BET(_tail - 1, msg.sender, msg.value, challenges, block.number+BET_BLOCK_INTERVAL);\r\n        \r\n\r\n        return true;\r\n    }\r\n\r\n    //(distribute) :  ,     ,        .\r\n        // \r\n        //   ,  .\r\n    /**\r\n    *@dev     .\r\n    *  :   /   :   /   or    :   \r\n     */\r\n    function distribute() public{\r\n        /*\r\n        queue    (head)3 4 5 6 7 8 9 10(tail)    .\r\n           tail   => 3 4 5 6 7 8 9 10 11 12...\r\n         3          , 3 pop.\r\n               (        )   .\r\n        */\r\n\r\n        //haed tail  roof   .\r\n        uint256 cur; //roof ! \r\n        uint256 transferAmount;\r\n        BetInfo memory b;\r\n        BlockStatus currentBlockStatus;\r\n        BettingResult currentBettingResult;\r\n\r\n        for(cur=_head;cur<_tail;cur++){\r\n            b=_bets[cur];\r\n            currentBlockStatus = getBlockStatus(b.answerBlockNumber);\r\n\r\n            //1.     (  ) :  blockNumber   blockNumber . (block.number > AnswerBlockNumber && block.number < BLOCK_LIMIT + AnswerBlockNumber)\r\n            if(currentBlockStatus == BlockStatus.Checkable){\r\n                bytes32 answerBlockHash = getAnswerBlockHash(b.answerBlockNumber);\r\n                currentBettingResult = isMatch(b.challenges, getAnswerBlockHash(b.answerBlockNumber)); // \r\n                //    (win), bettor pot money .\r\n                if(currentBettingResult == BettingResult.Win){\r\n                    //transfer pot\r\n                    transferAmount = transferAfterPayingFee(b.bettor, _pot + BET_AMOUNT);\r\n                    //pot = 0\r\n                    _pot = 0;\r\n                    //emit Win\r\n                    emit WIN(cur, b.bettor, transferAmount, b.challenges, answerBlockHash[0], b.answerBlockNumber);\r\n                }\r\n                //     (fail), bettor  pot money .\r\n                if(currentBettingResult == BettingResult.Fail){\r\n                    //pot = pot + BET_AMOUNT\r\n                    _pot += BET_AMOUNT;\r\n                    //emit FAIL\r\n                    emit FAIL(cur, b.bettor, 0, b.challenges, answerBlockHash[0], b.answerBlockNumber);\r\n                }\r\n                //   (draw), bettor  .\r\n                if(currentBettingResult == BettingResult.Draw){\r\n                    //transfer only BET_AMOUNT\r\n                    transferAmount = transferAfterPayingFee(b.bettor, BET_AMOUNT);\r\n                    //emit DRAW\r\n                    emit DRAW(cur, b.bettor, transferAmount, b.challenges, answerBlockHash[0], b.answerBlockNumber);\r\n                }\r\n                \r\n            }\r\n            //blockhash     2 :  blockhash     / block     block    \r\n            //2. block     : block.number <= AnswerBlockNumber\r\n            if(currentBlockStatus == BlockStatus.NotRevealed){\r\n                break;\r\n            }\r\n            //3. block    : block.number >= AnswerBlockNumber + BLOCK_LIMIT\r\n            if(currentBlockStatus == BlockStatus.BlockLimitPassed){\r\n                // && emit refund\r\n                //refund\r\n                transferAmount = transferAfterPayingFee(b.bettor, BET_AMOUNT);\r\n                //emit refund\r\n                emit REFUND(cur, b.bettor, transferAmount, b.challenges, b.answerBlockNumber);\r\n                \r\n            }\r\n            popBet(cur);\r\n        }\r\n        _head = cur;\r\n    }\r\n\r\n    function transferAfterPayingFee(address payable addr, uint256 amount) internal returns(uint256){\r\n        //uint256 fee = amount / 100;\r\n        uint256 fee = 0;\r\n        uint256 amountWithoutFee = amount - fee;\r\n\r\n        //transfer to addr\r\n        addr.transfer(amountWithoutFee);\r\n        //transfer to owner\r\n        owner.transfer(fee);\r\n\r\n        return amountWithoutFee; \r\n    }\r\n\r\n    function setAnswerForTest(bytes32 answer) public returns(bool result){\r\n        require(msg.sender == owner, \"Only owner can set the answer for test mode\");\r\n        answerForTest = answer;\r\n        return true;\r\n    }\r\n\r\n    function getAnswerBlockHash(uint256 answerBlockNumber) internal view returns(bytes32 answer){\r\n        return mode ? blockhash(answerBlockNumber) : answerForTest;\r\n    }\r\n\r\n    /*\r\n    @dev   .\r\n    @param challenges  \r\n    @param answer blockhash\r\n    @return \r\n    */\r\n    function isMatch(bytes1 challenges, bytes32 answer) public pure returns(BettingResult){\r\n        /*\r\n          \r\n        challenges = 0xab  \r\n        answer = 0xab.... 32bytes \r\n           : challenges answer     &&      \r\n        */\r\n\r\n        bytes1 c1 = challenges;\r\n        bytes1 c2 = challenges;\r\n\r\n        bytes1 a1 = answer[0];\r\n        bytes1 a2 = answer[0];\r\n\r\n        //1.     \r\n        c1 = c1>>4; //0xab  shift 4   0x0a \r\n        c1 = c1<<4; //  4 shift   0xa0 \r\n\r\n        a1 = a1>>4;\r\n        a1 = a1<<4;\r\n\r\n        //2.     \r\n        c2 = c2<<4; //0xab -> 0xb0\r\n        c2 = c2>>4; //0xb0 -> 0x0b\r\n\r\n        a2 = a2<<4;\r\n        a2 = a2>>4;\r\n\r\n        if(a1 == c1 && a2 == c2){\r\n            return BettingResult.Win;\r\n        }\r\n\r\n        if(a1 == c1 || a2 == c2){\r\n            return BettingResult.Draw;\r\n        }\r\n\r\n        return BettingResult.Fail;\r\n    }\r\n\r\n    function getBlockStatus(uint256 AnswerBlockNumber) internal view returns(BlockStatus){\r\n        if(block.number > AnswerBlockNumber && block.number < BLOCK_LIMIT + AnswerBlockNumber){\r\n            return BlockStatus.Checkable;\r\n        }\r\n        if(block.number <= AnswerBlockNumber){\r\n            return BlockStatus.NotRevealed;\r\n        }\r\n        if(block.number >= AnswerBlockNumber + BLOCK_LIMIT){\r\n            return BlockStatus.BlockLimitPassed;\r\n        }\r\n\r\n        return BlockStatus.BlockLimitPassed;\r\n    }\r\n\r\n}",
  "sourcePath": "C:\\Users\\Lacuc\\lottery-smart-contract\\contracts\\lottery.sol",
  "compiler": {
    "name": "solc",
    "version": "0.8.17+commit.8df45f5f.Emscripten.clang"
  },
  "schemaVersion": "3.4.11",
  "updatedAt": "2023-01-25T15:08:28.751Z",
  "networkType": "ethereum",
  "devdoc": {
    "kind": "dev",
    "methods": {
      "distribute()": {
        "details": "    .   :   /   :   /   or    :   "
      }
    },
    "version": 1
  },
  "userdoc": {
    "kind": "user",
    "methods": {},
    "version": 1
  }
}